{
  "_format": "hh-sol-artifact-1",
  "contractName": "Post",
  "sourceName": "contracts/Post.sol",
  "abi": [
    {
      "inputs": [],
      "stateMutability": "payable",
      "type": "constructor"
    },
    {
      "anonymous": false,
      "inputs": [
        {
          "indexed": true,
          "internalType": "address",
          "name": "from",
          "type": "address"
        },
        {
          "indexed": false,
          "internalType": "uint256",
          "name": "timestamp",
          "type": "uint256"
        },
        {
          "indexed": false,
          "internalType": "string",
          "name": "message",
          "type": "string"
        }
      ],
      "name": "NewPost",
      "type": "event"
    },
    {
      "inputs": [
        {
          "internalType": "string",
          "name": "_message",
          "type": "string"
        }
      ],
      "name": "createPost",
      "outputs": [],
      "stateMutability": "nonpayable",
      "type": "function"
    },
    {
      "inputs": [],
      "name": "getAllPosts",
      "outputs": [
        {
          "components": [
            {
              "internalType": "address",
              "name": "sender",
              "type": "address"
            },
            {
              "internalType": "string",
              "name": "message",
              "type": "string"
            },
            {
              "internalType": "uint256",
              "name": "timestamp",
              "type": "uint256"
            }
          ],
          "internalType": "struct Post.IPost[]",
          "name": "",
          "type": "tuple[]"
        }
      ],
      "stateMutability": "view",
      "type": "function"
    },
    {
      "inputs": [],
      "name": "getTotalPosts",
      "outputs": [
        {
          "internalType": "uint256",
          "name": "",
          "type": "uint256"
        }
      ],
      "stateMutability": "view",
      "type": "function"
    },
    {
      "inputs": [
        {
          "internalType": "address",
          "name": "",
          "type": "address"
        }
      ],
      "name": "lastPostAt",
      "outputs": [
        {
          "internalType": "uint256",
          "name": "",
          "type": "uint256"
        }
      ],
      "stateMutability": "view",
      "type": "function"
    }
  ],
  "bytecode": "0x60806040526100486040518060400160405280601181526020017f436f6e747261637420637265617465642100000000000000000000000000000081525061006b60201b60201c565b6064444261005691906101a4565b6100609190610207565b600181905550610319565b6101078160405160240161007f91906102c8565b6040516020818303038152906040527f41304fac000000000000000000000000000000000000000000000000000000007bffffffffffffffffffffffffffffffffffffffffffffffffffffffff19166020820180517bffffffffffffffffffffffffffffffffffffffffffffffffffffffff838183161783525050505061010a60201b60201c565b50565b61012b8161012661012e60201b6106401761014f60201b60201c565b60201c565b50565b60006a636f6e736f6c652e6c6f679050600080835160208501845afa505050565b61016160201b6107be17819050919050565b6101696102ea565b565b6000819050919050565b7f4e487b7100000000000000000000000000000000000000000000000000000000600052601160045260246000fd5b60006101af8261016b565b91506101ba8361016b565b92508282019050808211156101d2576101d1610175565b5b92915050565b7f4e487b7100000000000000000000000000000000000000000000000000000000600052601260045260246000fd5b60006102128261016b565b915061021d8361016b565b92508261022d5761022c6101d8565b5b828206905092915050565b600081519050919050565b600082825260208201905092915050565b60005b83811015610272578082015181840152602081019050610257565b60008484015250505050565b6000601f19601f8301169050919050565b600061029a82610238565b6102a48185610243565b93506102b4818560208601610254565b6102bd8161027e565b840191505092915050565b600060208201905081810360008301526102e2818461028f565b905092915050565b7f4e487b7100000000000000000000000000000000000000000000000000000000600052605160045260246000fd5b6112e6806103286000396000f3fe608060405234801561001057600080fd5b506004361061004c5760003560e01c806330561100146100515780635fe226b41461006f578063aa36eed61461008d578063c7303c61146100bd575b600080fd5b6100596100d9565b60405161006691906109c4565b60405180910390f35b61007761022a565b60405161008491906109f5565b60405180910390f35b6100a760048036038101906100a29190610a50565b610275565b6040516100b491906109f5565b60405180910390f35b6100d760048036038101906100d29190610bb2565b61028d565b005b60606002805480602002602001604051908101604052809291908181526020016000905b8282101561022157838290600052602060002090600302016040518060600160405290816000820160009054906101000a900473ffffffffffffffffffffffffffffffffffffffff1673ffffffffffffffffffffffffffffffffffffffff1673ffffffffffffffffffffffffffffffffffffffff16815260200160018201805461018690610c2a565b80601f01602080910402602001604051908101604052809291908181526020018280546101b290610c2a565b80156101ff5780601f106101d4576101008083540402835291602001916101ff565b820191906000526020600020905b8154815290600101906020018083116101e257829003601f168201915b50505050508152602001600282015481525050815260200190600101906100fd565b50505050905090565b600061026d6040518060400160405280600f81526020017f546f74616c20706f7374733a2025640000000000000000000000000000000000815250600054610661565b600054905090565b60036020528060005260406000206000915090505481565b42601e600360003373ffffffffffffffffffffffffffffffffffffffff1673ffffffffffffffffffffffffffffffffffffffff168152602001908152602001600020546102da9190610c8a565b1061031a576040517f08c379a000000000000000000000000000000000000000000000000000000000815260040161031190610d41565b60405180910390fd5b42600360003373ffffffffffffffffffffffffffffffffffffffff1673ffffffffffffffffffffffffffffffffffffffff1681526020019081526020016000208190555060016000808282546103709190610c8a565b925050819055506103b66040518060400160405280601381526020017f506f737420637265617465642062793a20257300000000000000000000000000815250336106fd565b600260405180606001604052803373ffffffffffffffffffffffffffffffffffffffff16815260200183815260200142815250908060018154018082558091505060019003906000526020600020906003020160009091909190915060008201518160000160006101000a81548173ffffffffffffffffffffffffffffffffffffffff021916908373ffffffffffffffffffffffffffffffffffffffff160217905550602082015181600101908161046e9190610f0d565b506040820151816002015550506064600154424461048c9190610c8a565b6104969190610c8a565b6104a0919061100e565b600181905550603260015410156105ed576104f06040518060400160405280601781526020017f257320776f6e20302e3030303120457468657265756d21000000000000000000815250336106fd565b6000655af3107a400090504781111561053e576040517f08c379a0000000000000000000000000000000000000000000000000000000008152600401610535906110b1565b60405180910390fd5b60003373ffffffffffffffffffffffffffffffffffffffff168260405161056490611102565b60006040518083038185875af1925050503d80600081146105a1576040519150601f19603f3d011682016040523d82523d6000602084013e6105a6565b606091505b50509050806105ea576040517f08c379a00000000000000000000000000000000000000000000000000000000081526004016105e190611189565b60405180910390fd5b50505b3373ffffffffffffffffffffffffffffffffffffffff167fd8c86c7877c3f1f8a40af6cf64a11fe867af887f2a1ad31aac849e36730425b042836040516106359291906111e2565b60405180910390a250565b60006a636f6e736f6c652e6c6f679050600080835160208501845afa505050565b6106f98282604051602401610677929190611212565b6040516020818303038152906040527fb60e72cc000000000000000000000000000000000000000000000000000000007bffffffffffffffffffffffffffffffffffffffffffffffffffffffff19166020820180517bffffffffffffffffffffffffffffffffffffffffffffffffffffffff8381831617835250505050610799565b5050565b6107958282604051602401610713929190611251565b6040516020818303038152906040527f319af333000000000000000000000000000000000000000000000000000000007bffffffffffffffffffffffffffffffffffffffffffffffffffffffff19166020820180517bffffffffffffffffffffffffffffffffffffffffffffffffffffffff8381831617835250505050610799565b5050565b6107b0816107a86106406107b3565b63ffffffff16565b50565b6107be819050919050565b6107c6611281565b565b600081519050919050565b600082825260208201905092915050565b6000819050602082019050919050565b600073ffffffffffffffffffffffffffffffffffffffff82169050919050565b600061081f826107f4565b9050919050565b61082f81610814565b82525050565b600081519050919050565b600082825260208201905092915050565b60005b8381101561086f578082015181840152602081019050610854565b60008484015250505050565b6000601f19601f8301169050919050565b600061089782610835565b6108a18185610840565b93506108b1818560208601610851565b6108ba8161087b565b840191505092915050565b6000819050919050565b6108d8816108c5565b82525050565b60006060830160008301516108f66000860182610826565b506020830151848203602086015261090e828261088c565b915050604083015161092360408601826108cf565b508091505092915050565b600061093a83836108de565b905092915050565b6000602082019050919050565b600061095a826107c8565b61096481856107d3565b935083602082028501610976856107e4565b8060005b858110156109b25784840389528151610993858261092e565b945061099e83610942565b925060208a0199505060018101905061097a565b50829750879550505050505092915050565b600060208201905081810360008301526109de818461094f565b905092915050565b6109ef816108c5565b82525050565b6000602082019050610a0a60008301846109e6565b92915050565b6000604051905090565b600080fd5b600080fd5b610a2d81610814565b8114610a3857600080fd5b50565b600081359050610a4a81610a24565b92915050565b600060208284031215610a6657610a65610a1a565b5b6000610a7484828501610a3b565b91505092915050565b600080fd5b600080fd5b7f4e487b7100000000000000000000000000000000000000000000000000000000600052604160045260246000fd5b610abf8261087b565b810181811067ffffffffffffffff82111715610ade57610add610a87565b5b80604052505050565b6000610af1610a10565b9050610afd8282610ab6565b919050565b600067ffffffffffffffff821115610b1d57610b1c610a87565b5b610b268261087b565b9050602081019050919050565b82818337600083830152505050565b6000610b55610b5084610b02565b610ae7565b905082815260208101848484011115610b7157610b70610a82565b5b610b7c848285610b33565b509392505050565b600082601f830112610b9957610b98610a7d565b5b8135610ba9848260208601610b42565b91505092915050565b600060208284031215610bc857610bc7610a1a565b5b600082013567ffffffffffffffff811115610be657610be5610a1f565b5b610bf284828501610b84565b91505092915050565b7f4e487b7100000000000000000000000000000000000000000000000000000000600052602260045260246000fd5b60006002820490506001821680610c4257607f821691505b602082108103610c5557610c54610bfb565b5b50919050565b7f4e487b7100000000000000000000000000000000000000000000000000000000600052601160045260246000fd5b6000610c95826108c5565b9150610ca0836108c5565b9250828201905080821115610cb857610cb7610c5b565b5b92915050565b600082825260208201905092915050565b7f4d7573742077616974203330207365636f6e6473206265666f7265207761766960008201527f6e6720616761696e2e0000000000000000000000000000000000000000000000602082015250565b6000610d2b602983610cbe565b9150610d3682610ccf565b604082019050919050565b60006020820190508181036000830152610d5a81610d1e565b9050919050565b60008190508160005260206000209050919050565b60006020601f8301049050919050565b600082821b905092915050565b600060088302610dc37fffffffffffffffffffffffffffffffffffffffffffffffffffffffffffffffff82610d86565b610dcd8683610d86565b95508019841693508086168417925050509392505050565b6000819050919050565b6000610e0a610e05610e00846108c5565b610de5565b6108c5565b9050919050565b6000819050919050565b610e2483610def565b610e38610e3082610e11565b848454610d93565b825550505050565b600090565b610e4d610e40565b610e58818484610e1b565b505050565b5b81811015610e7c57610e71600082610e45565b600181019050610e5e565b5050565b601f821115610ec157610e9281610d61565b610e9b84610d76565b81016020851015610eaa578190505b610ebe610eb685610d76565b830182610e5d565b50505b505050565b600082821c905092915050565b6000610ee460001984600802610ec6565b1980831691505092915050565b6000610efd8383610ed3565b9150826002028217905092915050565b610f1682610835565b67ffffffffffffffff811115610f2f57610f2e610a87565b5b610f398254610c2a565b610f44828285610e80565b600060209050601f831160018114610f775760008415610f65578287015190505b610f6f8582610ef1565b865550610fd7565b601f198416610f8586610d61565b60005b82811015610fad57848901518255600182019150602085019450602081019050610f88565b86831015610fca5784890151610fc6601f891682610ed3565b8355505b6001600288020188555050505b505050505050565b7f4e487b7100000000000000000000000000000000000000000000000000000000600052601260045260246000fd5b6000611019826108c5565b9150611024836108c5565b92508261103457611033610fdf565b5b828206905092915050565b7f547279696e6720746f207769746864726177206d6f7265206d6f6e657920746860008201527f616e2074686520636f6e7472616374206861732e000000000000000000000000602082015250565b600061109b603483610cbe565b91506110a68261103f565b604082019050919050565b600060208201905081810360008301526110ca8161108e565b9050919050565b600081905092915050565b50565b60006110ec6000836110d1565b91506110f7826110dc565b600082019050919050565b600061110d826110df565b9150819050919050565b7f4661696c656420746f207769746864726177206d6f6e65792066726f6d20636f60008201527f6e74726163742e00000000000000000000000000000000000000000000000000602082015250565b6000611173602783610cbe565b915061117e82611117565b604082019050919050565b600060208201905081810360008301526111a281611166565b9050919050565b60006111b482610835565b6111be8185610cbe565b93506111ce818560208601610851565b6111d78161087b565b840191505092915050565b60006040820190506111f760008301856109e6565b818103602083015261120981846111a9565b90509392505050565b6000604082019050818103600083015261122c81856111a9565b905061123b60208301846109e6565b9392505050565b61124b81610814565b82525050565b6000604082019050818103600083015261126b81856111a9565b905061127a6020830184611242565b9392505050565b7f4e487b7100000000000000000000000000000000000000000000000000000000600052605160045260246000fdfea264697066735822122040d4f06ba081490b40173ec89e2a428887f495f636f618d3861589f07b572e6564736f6c634300081c0033",
  "linkReferences": {},
  "deployedLinkReferences": {}
}